{
  "_format": "hh-sol-artifact-1",
  "contractName": "ProfilePictureNFT",
  "sourceName": "contracts/ProfilePicture.sol",
  "abi": [
    {
      "inputs": [],
      "stateMutability": "nonpayable",
      "type": "constructor"
    },
    {
      "anonymous": false,
      "inputs": [
        {
          "indexed": true,
          "internalType": "address",
          "name": "owner",
          "type": "address"
        },
        {
          "indexed": true,
          "internalType": "address",
          "name": "approved",
          "type": "address"
        },
        {
          "indexed": true,
          "internalType": "uint256",
          "name": "tokenId",
          "type": "uint256"
        }
      ],
      "name": "Approval",
      "type": "event"
    },
    {
      "anonymous": false,
      "inputs": [
        {
          "indexed": true,
          "internalType": "address",
          "name": "owner",
          "type": "address"
        },
        {
          "indexed": true,
          "internalType": "address",
          "name": "operator",
          "type": "address"
        },
        {
          "indexed": false,
          "internalType": "bool",
          "name": "approved",
          "type": "bool"
        }
      ],
      "name": "ApprovalForAll",
      "type": "event"
    },
    {
      "anonymous": false,
      "inputs": [
        {
          "indexed": false,
          "internalType": "uint256",
          "name": "_fromTokenId",
          "type": "uint256"
        },
        {
          "indexed": false,
          "internalType": "uint256",
          "name": "_toTokenId",
          "type": "uint256"
        }
      ],
      "name": "BatchMetadataUpdate",
      "type": "event"
    },
    {
      "anonymous": false,
      "inputs": [
        {
          "indexed": false,
          "internalType": "uint256",
          "name": "_tokenId",
          "type": "uint256"
        }
      ],
      "name": "MetadataUpdate",
      "type": "event"
    },
    {
      "anonymous": false,
      "inputs": [
        {
          "indexed": true,
          "internalType": "address",
          "name": "from",
          "type": "address"
        },
        {
          "indexed": true,
          "internalType": "address",
          "name": "to",
          "type": "address"
        },
        {
          "indexed": true,
          "internalType": "uint256",
          "name": "tokenId",
          "type": "uint256"
        }
      ],
      "name": "Transfer",
      "type": "event"
    },
    {
      "inputs": [
        {
          "internalType": "address",
          "name": "to",
          "type": "address"
        },
        {
          "internalType": "uint256",
          "name": "tokenId",
          "type": "uint256"
        }
      ],
      "name": "approve",
      "outputs": [],
      "stateMutability": "nonpayable",
      "type": "function"
    },
    {
      "inputs": [
        {
          "internalType": "address",
          "name": "owner",
          "type": "address"
        }
      ],
      "name": "balanceOf",
      "outputs": [
        {
          "internalType": "uint256",
          "name": "",
          "type": "uint256"
        }
      ],
      "stateMutability": "view",
      "type": "function"
    },
    {
      "inputs": [
        {
          "internalType": "uint256",
          "name": "tokenId",
          "type": "uint256"
        }
      ],
      "name": "burnNFT",
      "outputs": [],
      "stateMutability": "nonpayable",
      "type": "function"
    },
    {
      "inputs": [
        {
          "internalType": "uint256",
          "name": "tokenId",
          "type": "uint256"
        }
      ],
      "name": "getApproved",
      "outputs": [
        {
          "internalType": "address",
          "name": "",
          "type": "address"
        }
      ],
      "stateMutability": "view",
      "type": "function"
    },
    {
      "inputs": [
        {
          "internalType": "address",
          "name": "owner",
          "type": "address"
        },
        {
          "internalType": "address",
          "name": "operator",
          "type": "address"
        }
      ],
      "name": "isApprovedForAll",
      "outputs": [
        {
          "internalType": "bool",
          "name": "",
          "type": "bool"
        }
      ],
      "stateMutability": "view",
      "type": "function"
    },
    {
      "inputs": [
        {
          "internalType": "address",
          "name": "recipient",
          "type": "address"
        },
        {
          "internalType": "string",
          "name": "tokenURI",
          "type": "string"
        }
      ],
      "name": "mintNFT",
      "outputs": [
        {
          "internalType": "uint256",
          "name": "",
          "type": "uint256"
        }
      ],
      "stateMutability": "nonpayable",
      "type": "function"
    },
    {
      "inputs": [],
      "name": "name",
      "outputs": [
        {
          "internalType": "string",
          "name": "",
          "type": "string"
        }
      ],
      "stateMutability": "view",
      "type": "function"
    },
    {
      "inputs": [
        {
          "internalType": "uint256",
          "name": "tokenId",
          "type": "uint256"
        }
      ],
      "name": "ownerOf",
      "outputs": [
        {
          "internalType": "address",
          "name": "",
          "type": "address"
        }
      ],
      "stateMutability": "view",
      "type": "function"
    },
    {
      "inputs": [
        {
          "internalType": "address",
          "name": "from",
          "type": "address"
        },
        {
          "internalType": "address",
          "name": "to",
          "type": "address"
        },
        {
          "internalType": "uint256",
          "name": "tokenId",
          "type": "uint256"
        }
      ],
      "name": "safeTransferFrom",
      "outputs": [],
      "stateMutability": "nonpayable",
      "type": "function"
    },
    {
      "inputs": [
        {
          "internalType": "address",
          "name": "from",
          "type": "address"
        },
        {
          "internalType": "address",
          "name": "to",
          "type": "address"
        },
        {
          "internalType": "uint256",
          "name": "tokenId",
          "type": "uint256"
        },
        {
          "internalType": "bytes",
          "name": "data",
          "type": "bytes"
        }
      ],
      "name": "safeTransferFrom",
      "outputs": [],
      "stateMutability": "nonpayable",
      "type": "function"
    },
    {
      "inputs": [
        {
          "internalType": "address",
          "name": "operator",
          "type": "address"
        },
        {
          "internalType": "bool",
          "name": "approved",
          "type": "bool"
        }
      ],
      "name": "setApprovalForAll",
      "outputs": [],
      "stateMutability": "nonpayable",
      "type": "function"
    },
    {
      "inputs": [
        {
          "internalType": "bytes4",
          "name": "interfaceId",
          "type": "bytes4"
        }
      ],
      "name": "supportsInterface",
      "outputs": [
        {
          "internalType": "bool",
          "name": "",
          "type": "bool"
        }
      ],
      "stateMutability": "view",
      "type": "function"
    },
    {
      "inputs": [],
      "name": "symbol",
      "outputs": [
        {
          "internalType": "string",
          "name": "",
          "type": "string"
        }
      ],
      "stateMutability": "view",
      "type": "function"
    },
    {
      "inputs": [
        {
          "internalType": "uint256",
          "name": "tokenId",
          "type": "uint256"
        }
      ],
      "name": "tokenURI",
      "outputs": [
        {
          "internalType": "string",
          "name": "",
          "type": "string"
        }
      ],
      "stateMutability": "view",
      "type": "function"
    },
    {
      "inputs": [
        {
          "internalType": "address",
          "name": "owner",
          "type": "address"
        }
      ],
      "name": "tokensOfOwner",
      "outputs": [
        {
          "internalType": "uint256[]",
          "name": "",
          "type": "uint256[]"
        }
      ],
      "stateMutability": "view",
      "type": "function"
    },
    {
      "inputs": [
        {
          "internalType": "address",
          "name": "from",
          "type": "address"
        },
        {
          "internalType": "address",
          "name": "to",
          "type": "address"
        },
        {
          "internalType": "uint256",
          "name": "tokenId",
          "type": "uint256"
        }
      ],
      "name": "transferFrom",
      "outputs": [],
      "stateMutability": "nonpayable",
      "type": "function"
    }
  ],
  "bytecode": "0x60806040523480156200001157600080fd5b506040518060400160405280601181526020017f50726f66696c65506963747572654e46540000000000000000000000000000008152506040518060400160405280600581526020017f50504e4654000000000000000000000000000000000000000000000000000000815250816000908051906020019062000096929190620000b8565b508060019080519060200190620000af929190620000b8565b505050620001cd565b828054620000c69062000168565b90600052602060002090601f016020900481019282620000ea576000855562000136565b82601f106200010557805160ff191683800117855562000136565b8280016001018555821562000136579182015b828111156200013557825182559160200191906001019062000118565b5b50905062000145919062000149565b5090565b5b80821115620001645760008160009055506001016200014a565b5090565b600060028204905060018216806200018157607f821691505b602082108114156200019857620001976200019e565b5b50919050565b7f4e487b7100000000000000000000000000000000000000000000000000000000600052602260045260246000fd5b612f6b80620001dd6000396000f3fe608060405234801561001057600080fd5b50600436106101005760003560e01c806370a0823111610097578063b88d4fde11610066578063b88d4fde146102bd578063c87b56dd146102d9578063e985e9c514610309578063eacabe141461033957610100565b806370a08231146102235780638462151c1461025357806395d89b4114610283578063a22cb465146102a157610100565b806323b872dd116100d357806323b872dd1461019f5780632890e0d7146101bb57806342842e0e146101d75780636352211e146101f357610100565b806301ffc9a71461010557806306fdde0314610135578063081812fc14610153578063095ea7b314610183575b600080fd5b61011f600480360381019061011a91906122a7565b610369565b60405161012c91906126eb565b60405180910390f35b61013d6103ca565b60405161014a9190612706565b60405180910390f35b61016d600480360381019061016891906122f9565b61045c565b60405161017a9190612662565b60405180910390f35b61019d6004803603810190610198919061226b565b6104a2565b005b6101b960048036038101906101b49190612111565b6105ba565b005b6101d560048036038101906101d091906122f9565b61061a565b005b6101f160048036038101906101ec9190612111565b610676565b005b61020d600480360381019061020891906122f9565b610696565b60405161021a9190612662565b60405180910390f35b61023d600480360381019061023891906120ac565b61071d565b60405161024a91906128c8565b60405180910390f35b61026d600480360381019061026891906120ac565b6107d5565b60405161027a91906126c9565b60405180910390f35b61028b61086c565b6040516102989190612706565b60405180910390f35b6102bb60048036038101906102b691906121db565b6108fe565b005b6102d760048036038101906102d29190612160565b610914565b005b6102f360048036038101906102ee91906122f9565b610976565b6040516103009190612706565b60405180910390f35b610323600480360381019061031e91906120d5565b610a89565b60405161033091906126eb565b60405180910390f35b610353600480360381019061034e9190612217565b610b1d565b60405161036091906128c8565b60405180910390f35b6000634906490660e01b7bffffffffffffffffffffffffffffffffffffffffffffffffffffffff1916827bffffffffffffffffffffffffffffffffffffffffffffffffffffffff191614806103c357506103c282610bbb565b5b9050919050565b6060600080546103d990612a9c565b80601f016020809104026020016040519081016040528092919081815260200182805461040590612a9c565b80156104525780601f1061042757610100808354040283529160200191610452565b820191906000526020600020905b81548152906001019060200180831161043557829003601f168201915b5050505050905090565b600061046782610c9d565b6004600083815260200190815260200160002060009054906101000a900473ffffffffffffffffffffffffffffffffffffffff169050919050565b60006104ad82610696565b90508073ffffffffffffffffffffffffffffffffffffffff168373ffffffffffffffffffffffffffffffffffffffff16141561051e576040517f08c379a000000000000000000000000000000000000000000000000000000000815260040161051590612868565b60405180910390fd5b8073ffffffffffffffffffffffffffffffffffffffff1661053d610ce8565b73ffffffffffffffffffffffffffffffffffffffff16148061056c575061056b81610566610ce8565b610a89565b5b6105ab576040517f08c379a00000000000000000000000000000000000000000000000000000000081526004016105a2906128a8565b60405180910390fd5b6105b58383610cf0565b505050565b6105cb6105c5610ce8565b82610da9565b61060a576040517f08c379a000000000000000000000000000000000000000000000000000000000815260040161060190612728565b60405180910390fd5b610615838383610e3e565b505050565b61062b610625610ce8565b82610da9565b61066a576040517f08c379a000000000000000000000000000000000000000000000000000000000815260040161066190612888565b60405180910390fd5b61067381611138565b50565b61069183838360405180602001604052806000815250610914565b505050565b6000806106a28361118b565b9050600073ffffffffffffffffffffffffffffffffffffffff168173ffffffffffffffffffffffffffffffffffffffff161415610714576040517f08c379a000000000000000000000000000000000000000000000000000000000815260040161070b90612848565b60405180910390fd5b80915050919050565b60008073ffffffffffffffffffffffffffffffffffffffff168273ffffffffffffffffffffffffffffffffffffffff16141561078e576040517f08c379a0000000000000000000000000000000000000000000000000000000008152600401610785906127e8565b60405180910390fd5b600360008373ffffffffffffffffffffffffffffffffffffffff1673ffffffffffffffffffffffffffffffffffffffff168152602001908152602001600020549050919050565b6060600860008373ffffffffffffffffffffffffffffffffffffffff1673ffffffffffffffffffffffffffffffffffffffff16815260200190815260200160002080548060200260200160405190810160405280929190818152602001828054801561086057602002820191906000526020600020905b81548152602001906001019080831161084c575b50505050509050919050565b60606001805461087b90612a9c565b80601f01602080910402602001604051908101604052809291908181526020018280546108a790612a9c565b80156108f45780601f106108c9576101008083540402835291602001916108f4565b820191906000526020600020905b8154815290600101906020018083116108d757829003601f168201915b5050505050905090565b610910610909610ce8565b83836111c8565b5050565b61092561091f610ce8565b83610da9565b610964576040517f08c379a000000000000000000000000000000000000000000000000000000000815260040161095b90612728565b60405180910390fd5b61097084848484611335565b50505050565b606061098182610c9d565b60006006600084815260200190815260200160002080546109a190612a9c565b80601f01602080910402602001604051908101604052809291908181526020018280546109cd90612a9c565b8015610a1a5780601f106109ef57610100808354040283529160200191610a1a565b820191906000526020600020905b8154815290600101906020018083116109fd57829003601f168201915b505050505090506000610a2b611391565b9050600081511415610a41578192505050610a84565b600082511115610a76578082604051602001610a5e92919061263e565b60405160208183030381529060405292505050610a84565b610a7f846113a8565b925050505b919050565b6000600560008473ffffffffffffffffffffffffffffffffffffffff1673ffffffffffffffffffffffffffffffffffffffff16815260200190815260200160002060008373ffffffffffffffffffffffffffffffffffffffff1673ffffffffffffffffffffffffffffffffffffffff16815260200190815260200160002060009054906101000a900460ff16905092915050565b6000610b296007611410565b6000610b356007611426565b9050610b418482611434565b610b4b8184611452565b600860008573ffffffffffffffffffffffffffffffffffffffff1673ffffffffffffffffffffffffffffffffffffffff1681526020019081526020016000208190806001815401808255809150506001900390600052602060002001600090919091909150558091505092915050565b60007f80ac58cd000000000000000000000000000000000000000000000000000000007bffffffffffffffffffffffffffffffffffffffffffffffffffffffff1916827bffffffffffffffffffffffffffffffffffffffffffffffffffffffff19161480610c8657507f5b5e139f000000000000000000000000000000000000000000000000000000007bffffffffffffffffffffffffffffffffffffffffffffffffffffffff1916827bffffffffffffffffffffffffffffffffffffffffffffffffffffffff1916145b80610c965750610c95826114fd565b5b9050919050565b610ca681611567565b610ce5576040517f08c379a0000000000000000000000000000000000000000000000000000000008152600401610cdc90612848565b60405180910390fd5b50565b600033905090565b816004600083815260200190815260200160002060006101000a81548173ffffffffffffffffffffffffffffffffffffffff021916908373ffffffffffffffffffffffffffffffffffffffff160217905550808273ffffffffffffffffffffffffffffffffffffffff16610d6383610696565b73ffffffffffffffffffffffffffffffffffffffff167f8c5be1e5ebec7d5bd14f71427d1e84f3dd0314c0f7b2291e5b200ac8c7c3b92560405160405180910390a45050565b600080610db583610696565b90508073ffffffffffffffffffffffffffffffffffffffff168473ffffffffffffffffffffffffffffffffffffffff161480610df75750610df68185610a89565b5b80610e3557508373ffffffffffffffffffffffffffffffffffffffff16610e1d8461045c565b73ffffffffffffffffffffffffffffffffffffffff16145b91505092915050565b8273ffffffffffffffffffffffffffffffffffffffff16610e5e82610696565b73ffffffffffffffffffffffffffffffffffffffff1614610eb4576040517f08c379a0000000000000000000000000000000000000000000000000000000008152600401610eab90612768565b60405180910390fd5b600073ffffffffffffffffffffffffffffffffffffffff168273ffffffffffffffffffffffffffffffffffffffff161415610f24576040517f08c379a0000000000000000000000000000000000000000000000000000000008152600401610f1b906127a8565b60405180910390fd5b610f3183838360016115a8565b8273ffffffffffffffffffffffffffffffffffffffff16610f5182610696565b73ffffffffffffffffffffffffffffffffffffffff1614610fa7576040517f08c379a0000000000000000000000000000000000000000000000000000000008152600401610f9e90612768565b60405180910390fd5b6004600082815260200190815260200160002060006101000a81549073ffffffffffffffffffffffffffffffffffffffff02191690556001600360008573ffffffffffffffffffffffffffffffffffffffff1673ffffffffffffffffffffffffffffffffffffffff168152602001908152602001600020600082825403925050819055506001600360008473ffffffffffffffffffffffffffffffffffffffff1673ffffffffffffffffffffffffffffffffffffffff16815260200190815260200160002060008282540192505081905550816002600083815260200190815260200160002060006101000a81548173ffffffffffffffffffffffffffffffffffffffff021916908373ffffffffffffffffffffffffffffffffffffffff160217905550808273ffffffffffffffffffffffffffffffffffffffff168473ffffffffffffffffffffffffffffffffffffffff167fddf252ad1be2c89b69c2b068fc378daa952ba7f163c4a11628f55a4df523b3ef60405160405180910390a461113383838360016115ae565b505050565b611141816115b4565b600060066000838152602001908152602001600020805461116190612a9c565b905014611188576006600082815260200190815260200160002060006111879190611e90565b5b50565b60006002600083815260200190815260200160002060009054906101000a900473ffffffffffffffffffffffffffffffffffffffff169050919050565b8173ffffffffffffffffffffffffffffffffffffffff168373ffffffffffffffffffffffffffffffffffffffff161415611237576040517f08c379a000000000000000000000000000000000000000000000000000000000815260040161122e906127c8565b60405180910390fd5b80600560008573ffffffffffffffffffffffffffffffffffffffff1673ffffffffffffffffffffffffffffffffffffffff16815260200190815260200160002060008473ffffffffffffffffffffffffffffffffffffffff1673ffffffffffffffffffffffffffffffffffffffff16815260200190815260200160002060006101000a81548160ff0219169083151502179055508173ffffffffffffffffffffffffffffffffffffffff168373ffffffffffffffffffffffffffffffffffffffff167f17307eab39ab6107e8899845ad3d59bd9653f200f220920489ca2b5937696c318360405161132891906126eb565b60405180910390a3505050565b611340848484610e3e565b61134c84848484611702565b61138b576040517f08c379a000000000000000000000000000000000000000000000000000000000815260040161138290612748565b60405180910390fd5b50505050565b606060405180602001604052806000815250905090565b60606113b382610c9d565b60006113bd611391565b905060008151116113dd5760405180602001604052806000815250611408565b806113e784611899565b6040516020016113f892919061263e565b6040516020818303038152906040525b915050919050565b6001816000016000828254019250508190555050565b600081600001549050919050565b61144e8282604051806020016040528060008152506119bd565b5050565b61145b82611567565b61149a576040517f08c379a000000000000000000000000000000000000000000000000000000000815260040161149190612808565b60405180910390fd5b806006600084815260200190815260200160002090805190602001906114c1929190611ed0565b507ff8e1a15aba9398e019f0b49df1a4fde98ee17ae345cb5f6b5e2c27f5033e8ce7826040516114f191906128c8565b60405180910390a15050565b60007f01ffc9a7000000000000000000000000000000000000000000000000000000007bffffffffffffffffffffffffffffffffffffffffffffffffffffffff1916827bffffffffffffffffffffffffffffffffffffffffffffffffffffffff1916149050919050565b60008073ffffffffffffffffffffffffffffffffffffffff166115898361118b565b73ffffffffffffffffffffffffffffffffffffffff1614159050919050565b50505050565b50505050565b60006115bf82610696565b90506115cf8160008460016115a8565b6115d882610696565b90506004600083815260200190815260200160002060006101000a81549073ffffffffffffffffffffffffffffffffffffffff02191690556001600360008373ffffffffffffffffffffffffffffffffffffffff1673ffffffffffffffffffffffffffffffffffffffff168152602001908152602001600020600082825403925050819055506002600083815260200190815260200160002060006101000a81549073ffffffffffffffffffffffffffffffffffffffff021916905581600073ffffffffffffffffffffffffffffffffffffffff168273ffffffffffffffffffffffffffffffffffffffff167fddf252ad1be2c89b69c2b068fc378daa952ba7f163c4a11628f55a4df523b3ef60405160405180910390a46116fe8160008460016115ae565b5050565b60006117238473ffffffffffffffffffffffffffffffffffffffff16611a18565b1561188c578373ffffffffffffffffffffffffffffffffffffffff1663150b7a0261174c610ce8565b8786866040518563ffffffff1660e01b815260040161176e949392919061267d565b602060405180830381600087803b15801561178857600080fd5b505af19250505080156117b957506040513d601f19601f820116820180604052508101906117b691906122d0565b60015b61183c573d80600081146117e9576040519150601f19603f3d011682016040523d82523d6000602084013e6117ee565b606091505b50600081511415611834576040517f08c379a000000000000000000000000000000000000000000000000000000000815260040161182b90612748565b60405180910390fd5b805181602001fd5b63150b7a0260e01b7bffffffffffffffffffffffffffffffffffffffffffffffffffffffff1916817bffffffffffffffffffffffffffffffffffffffffffffffffffffffff191614915050611891565b600190505b949350505050565b6060600060016118a884611a3b565b01905060008167ffffffffffffffff8111156118ed577f4e487b7100000000000000000000000000000000000000000000000000000000600052604160045260246000fd5b6040519080825280601f01601f19166020018201604052801561191f5781602001600182028036833780820191505090505b509050600082602001820190505b6001156119b2578080600190039150507f3031323334353637383961626364656600000000000000000000000000000000600a86061a8153600a858161199c577f4e487b7100000000000000000000000000000000000000000000000000000000600052601260045260246000fd5b04945060008514156119ad576119b2565b61192d565b819350505050919050565b6119c78383611c72565b6119d46000848484611702565b611a13576040517f08c379a0000000000000000000000000000000000000000000000000000000008152600401611a0a90612748565b60405180910390fd5b505050565b6000808273ffffffffffffffffffffffffffffffffffffffff163b119050919050565b600080600090507a184f03e93ff9f4daa797ed6e38ed64bf6a1f0100000000000000008310611abf577a184f03e93ff9f4daa797ed6e38ed64bf6a1f0100000000000000008381611ab5577f4e487b7100000000000000000000000000000000000000000000000000000000600052601260045260246000fd5b0492506040810190505b6d04ee2d6d415b85acef81000000008310611b22576d04ee2d6d415b85acef81000000008381611b18577f4e487b7100000000000000000000000000000000000000000000000000000000600052601260045260246000fd5b0492506020810190505b662386f26fc100008310611b7757662386f26fc100008381611b6d577f4e487b7100000000000000000000000000000000000000000000000000000000600052601260045260246000fd5b0492506010810190505b6305f5e1008310611bc6576305f5e1008381611bbc577f4e487b7100000000000000000000000000000000000000000000000000000000600052601260045260246000fd5b0492506008810190505b6127108310611c11576127108381611c07577f4e487b7100000000000000000000000000000000000000000000000000000000600052601260045260246000fd5b0492506004810190505b60648310611c5a5760648381611c50577f4e487b7100000000000000000000000000000000000000000000000000000000600052601260045260246000fd5b0492506002810190505b600a8310611c69576001810190505b80915050919050565b600073ffffffffffffffffffffffffffffffffffffffff168273ffffffffffffffffffffffffffffffffffffffff161415611ce2576040517f08c379a0000000000000000000000000000000000000000000000000000000008152600401611cd990612828565b60405180910390fd5b611ceb81611567565b15611d2b576040517f08c379a0000000000000000000000000000000000000000000000000000000008152600401611d2290612788565b60405180910390fd5b611d396000838360016115a8565b611d4281611567565b15611d82576040517f08c379a0000000000000000000000000000000000000000000000000000000008152600401611d7990612788565b60405180910390fd5b6001600360008473ffffffffffffffffffffffffffffffffffffffff1673ffffffffffffffffffffffffffffffffffffffff16815260200190815260200160002060008282540192505081905550816002600083815260200190815260200160002060006101000a81548173ffffffffffffffffffffffffffffffffffffffff021916908373ffffffffffffffffffffffffffffffffffffffff160217905550808273ffffffffffffffffffffffffffffffffffffffff16600073ffffffffffffffffffffffffffffffffffffffff167fddf252ad1be2c89b69c2b068fc378daa952ba7f163c4a11628f55a4df523b3ef60405160405180910390a4611e8c6000838360016115ae565b5050565b508054611e9c90612a9c565b6000825580601f10611eae5750611ecd565b601f016020900490600052602060002090810190611ecc9190611f56565b5b50565b828054611edc90612a9c565b90600052602060002090601f016020900481019282611efe5760008555611f45565b82601f10611f1757805160ff1916838001178555611f45565b82800160010185558215611f45579182015b82811115611f44578251825591602001919060010190611f29565b5b509050611f529190611f56565b5090565b5b80821115611f6f576000816000905550600101611f57565b5090565b6000611f86611f8184612908565b6128e3565b905082815260208101848484011115611f9e57600080fd5b611fa9848285612a5a565b509392505050565b6000611fc4611fbf84612939565b6128e3565b905082815260208101848484011115611fdc57600080fd5b611fe7848285612a5a565b509392505050565b600081359050611ffe81612ed9565b92915050565b60008135905061201381612ef0565b92915050565b60008135905061202881612f07565b92915050565b60008151905061203d81612f07565b92915050565b600082601f83011261205457600080fd5b8135612064848260208601611f73565b91505092915050565b600082601f83011261207e57600080fd5b813561208e848260208601611fb1565b91505092915050565b6000813590506120a681612f1e565b92915050565b6000602082840312156120be57600080fd5b60006120cc84828501611fef565b91505092915050565b600080604083850312156120e857600080fd5b60006120f685828601611fef565b925050602061210785828601611fef565b9150509250929050565b60008060006060848603121561212657600080fd5b600061213486828701611fef565b935050602061214586828701611fef565b925050604061215686828701612097565b9150509250925092565b6000806000806080858703121561217657600080fd5b600061218487828801611fef565b945050602061219587828801611fef565b93505060406121a687828801612097565b925050606085013567ffffffffffffffff8111156121c357600080fd5b6121cf87828801612043565b91505092959194509250565b600080604083850312156121ee57600080fd5b60006121fc85828601611fef565b925050602061220d85828601612004565b9150509250929050565b6000806040838503121561222a57600080fd5b600061223885828601611fef565b925050602083013567ffffffffffffffff81111561225557600080fd5b6122618582860161206d565b9150509250929050565b6000806040838503121561227e57600080fd5b600061228c85828601611fef565b925050602061229d85828601612097565b9150509250929050565b6000602082840312156122b957600080fd5b60006122c784828501612019565b91505092915050565b6000602082840312156122e257600080fd5b60006122f08482850161202e565b91505092915050565b60006020828403121561230b57600080fd5b600061231984828501612097565b91505092915050565b600061232e8383612620565b60208301905092915050565b612343816129e6565b82525050565b60006123548261297a565b61235e81856129a8565b93506123698361296a565b8060005b8381101561239a5781516123818882612322565b975061238c8361299b565b92505060018101905061236d565b5085935050505092915050565b6123b0816129f8565b82525050565b60006123c182612985565b6123cb81856129b9565b93506123db818560208601612a69565b6123e481612b5d565b840191505092915050565b60006123fa82612990565b61240481856129ca565b9350612414818560208601612a69565b61241d81612b5d565b840191505092915050565b600061243382612990565b61243d81856129db565b935061244d818560208601612a69565b80840191505092915050565b6000612466602d836129ca565b915061247182612b6e565b604082019050919050565b60006124896032836129ca565b915061249482612bbd565b604082019050919050565b60006124ac6025836129ca565b91506124b782612c0c565b604082019050919050565b60006124cf601c836129ca565b91506124da82612c5b565b602082019050919050565b60006124f26024836129ca565b91506124fd82612c84565b604082019050919050565b60006125156019836129ca565b915061252082612cd3565b602082019050919050565b60006125386029836129ca565b915061254382612cfc565b604082019050919050565b600061255b602e836129ca565b915061256682612d4b565b604082019050919050565b600061257e6020836129ca565b915061258982612d9a565b602082019050919050565b60006125a16018836129ca565b91506125ac82612dc3565b602082019050919050565b60006125c46021836129ca565b91506125cf82612dec565b604082019050919050565b60006125e76022836129ca565b91506125f282612e3b565b604082019050919050565b600061260a603d836129ca565b915061261582612e8a565b604082019050919050565b61262981612a50565b82525050565b61263881612a50565b82525050565b600061264a8285612428565b91506126568284612428565b91508190509392505050565b6000602082019050612677600083018461233a565b92915050565b6000608082019050612692600083018761233a565b61269f602083018661233a565b6126ac604083018561262f565b81810360608301526126be81846123b6565b905095945050505050565b600060208201905081810360008301526126e38184612349565b905092915050565b600060208201905061270060008301846123a7565b92915050565b6000602082019050818103600083015261272081846123ef565b905092915050565b6000602082019050818103600083015261274181612459565b9050919050565b600060208201905081810360008301526127618161247c565b9050919050565b600060208201905081810360008301526127818161249f565b9050919050565b600060208201905081810360008301526127a1816124c2565b9050919050565b600060208201905081810360008301526127c1816124e5565b9050919050565b600060208201905081810360008301526127e181612508565b9050919050565b600060208201905081810360008301526128018161252b565b9050919050565b600060208201905081810360008301526128218161254e565b9050919050565b6000602082019050818103600083015261284181612571565b9050919050565b6000602082019050818103600083015261286181612594565b9050919050565b60006020820190508181036000830152612881816125b7565b9050919050565b600060208201905081810360008301526128a1816125da565b9050919050565b600060208201905081810360008301526128c1816125fd565b9050919050565b60006020820190506128dd600083018461262f565b92915050565b60006128ed6128fe565b90506128f98282612ace565b919050565b6000604051905090565b600067ffffffffffffffff82111561292357612922612b2e565b5b61292c82612b5d565b9050602081019050919050565b600067ffffffffffffffff82111561295457612953612b2e565b5b61295d82612b5d565b9050602081019050919050565b6000819050602082019050919050565b600081519050919050565b600081519050919050565b600081519050919050565b6000602082019050919050565b600082825260208201905092915050565b600082825260208201905092915050565b600082825260208201905092915050565b600081905092915050565b60006129f182612a30565b9050919050565b60008115159050919050565b60007fffffffff0000000000000000000000000000000000000000000000000000000082169050919050565b600073ffffffffffffffffffffffffffffffffffffffff82169050919050565b6000819050919050565b82818337600083830152505050565b60005b83811015612a87578082015181840152602081019050612a6c565b83811115612a96576000848401525b50505050565b60006002820490506001821680612ab457607f821691505b60208210811415612ac857612ac7612aff565b5b50919050565b612ad782612b5d565b810181811067ffffffffffffffff82111715612af657612af5612b2e565b5b80604052505050565b7f4e487b7100000000000000000000000000000000000000000000000000000000600052602260045260246000fd5b7f4e487b7100000000000000000000000000000000000000000000000000000000600052604160045260246000fd5b6000601f19601f8301169050919050565b7f4552433732313a2063616c6c6572206973206e6f7420746f6b656e206f776e6560008201527f72206f7220617070726f76656400000000000000000000000000000000000000602082015250565b7f4552433732313a207472616e7366657220746f206e6f6e20455243373231526560008201527f63656976657220696d706c656d656e7465720000000000000000000000000000602082015250565b7f4552433732313a207472616e736665722066726f6d20696e636f72726563742060008201527f6f776e6572000000000000000000000000000000000000000000000000000000602082015250565b7f4552433732313a20746f6b656e20616c7265616479206d696e74656400000000600082015250565b7f4552433732313a207472616e7366657220746f20746865207a65726f2061646460008201527f7265737300000000000000000000000000000000000000000000000000000000602082015250565b7f4552433732313a20617070726f766520746f2063616c6c657200000000000000600082015250565b7f4552433732313a2061646472657373207a65726f206973206e6f74206120766160008201527f6c6964206f776e65720000000000000000000000000000000000000000000000602082015250565b7f45524337323155524953746f726167653a2055524920736574206f66206e6f6e60008201527f6578697374656e7420746f6b656e000000000000000000000000000000000000602082015250565b7f4552433732313a206d696e7420746f20746865207a65726f2061646472657373600082015250565b7f4552433732313a20696e76616c696420746f6b656e2049440000000000000000600082015250565b7f4552433732313a20617070726f76616c20746f2063757272656e74206f776e6560008201527f7200000000000000000000000000000000000000000000000000000000000000602082015250565b7f43616c6c6572206973206e6f7420746865206f776e6572206f6620746865204e60008201527f4654000000000000000000000000000000000000000000000000000000000000602082015250565b7f4552433732313a20617070726f76652063616c6c6572206973206e6f7420746f60008201527f6b656e206f776e6572206f7220617070726f76656420666f7220616c6c000000602082015250565b612ee2816129e6565b8114612eed57600080fd5b50565b612ef9816129f8565b8114612f0457600080fd5b50565b612f1081612a04565b8114612f1b57600080fd5b50565b612f2781612a50565b8114612f3257600080fd5b5056fea2646970667358221220bd7220b4448dc0448c0f3ba544957e0191eee3c048734132939068fccd11d59a64736f6c63430008010033",
  "linkReferences": {},
  "deployedLinkReferences": {}
}