{
  "_format": "hh-sol-artifact-1",
  "contractName": "VaccineRegistry",
  "sourceName": "contracts/TheFinal(Hope).sol",
  "abi": [
    {
      "inputs": [],
      "stateMutability": "nonpayable",
      "type": "constructor"
    },
    {
      "inputs": [
        {
          "internalType": "address",
          "name": "doctor",
          "type": "address"
        },
        {
          "internalType": "string",
          "name": "name",
          "type": "string"
        }
      ],
      "name": "addAndVerifyDoctor",
      "outputs": [],
      "stateMutability": "nonpayable",
      "type": "function"
    },
    {
      "inputs": [
        {
          "internalType": "address",
          "name": "patient",
          "type": "address"
        },
        {
          "internalType": "string",
          "name": "name",
          "type": "string"
        },
        {
          "internalType": "uint256",
          "name": "date",
          "type": "uint256"
        }
      ],
      "name": "addVaccine",
      "outputs": [],
      "stateMutability": "nonpayable",
      "type": "function"
    },
    {
      "inputs": [
        {
          "internalType": "address",
          "name": "",
          "type": "address"
        }
      ],
      "name": "doctorNames",
      "outputs": [
        {
          "internalType": "string",
          "name": "",
          "type": "string"
        }
      ],
      "stateMutability": "view",
      "type": "function"
    },
    {
      "inputs": [
        {
          "internalType": "address",
          "name": "patient",
          "type": "address"
        }
      ],
      "name": "getPatientVaccines",
      "outputs": [
        {
          "components": [
            {
              "internalType": "string",
              "name": "name",
              "type": "string"
            },
            {
              "internalType": "uint256",
              "name": "date",
              "type": "uint256"
            },
            {
              "internalType": "address",
              "name": "doctor",
              "type": "address"
            },
            {
              "internalType": "string",
              "name": "doctorName",
              "type": "string"
            }
          ],
          "internalType": "struct VaccineRegistry.Vaccine[]",
          "name": "",
          "type": "tuple[]"
        }
      ],
      "stateMutability": "view",
      "type": "function"
    },
    {
      "inputs": [
        {
          "internalType": "address",
          "name": "doctor",
          "type": "address"
        }
      ],
      "name": "isVerified",
      "outputs": [
        {
          "internalType": "bool",
          "name": "",
          "type": "bool"
        }
      ],
      "stateMutability": "view",
      "type": "function"
    },
    {
      "inputs": [
        {
          "internalType": "address",
          "name": "",
          "type": "address"
        },
        {
          "internalType": "uint256",
          "name": "",
          "type": "uint256"
        }
      ],
      "name": "patientVaccines",
      "outputs": [
        {
          "internalType": "string",
          "name": "name",
          "type": "string"
        },
        {
          "internalType": "uint256",
          "name": "date",
          "type": "uint256"
        },
        {
          "internalType": "address",
          "name": "doctor",
          "type": "address"
        },
        {
          "internalType": "string",
          "name": "doctorName",
          "type": "string"
        }
      ],
      "stateMutability": "view",
      "type": "function"
    },
    {
      "inputs": [
        {
          "internalType": "address",
          "name": "",
          "type": "address"
        }
      ],
      "name": "verifiedDoctors",
      "outputs": [
        {
          "internalType": "bool",
          "name": "",
          "type": "bool"
        }
      ],
      "stateMutability": "view",
      "type": "function"
    }
  ],
  "bytecode": "0x608060405234801561001057600080fd5b5033600360006101000a81548173ffffffffffffffffffffffffffffffffffffffff021916908373ffffffffffffffffffffffffffffffffffffffff16021790555061147e806100616000396000f3fe608060405234801561001057600080fd5b506004361061007d5760003560e01c80639d05cbc91161005b5780639d05cbc914610101578063b9209e3314610131578063c727b3d914610161578063fbfdf8d4146101915761007d565b806312640b38146100825780634f996821146100b25780636391f33e146100ce575b600080fd5b61009c60048036038101906100979190610ce4565b6101ad565b6040516100a99190611037565b60405180910390f35b6100cc60048036038101906100c79190610d0d565b61024d565b005b6100e860048036038101906100e39190610dc8565b61038c565b6040516100f89493929190611059565b60405180910390f35b61011b60048036038101906101169190610ce4565b610509565b6040516101289190610ffa565b60405180910390f35b61014b60048036038101906101469190610ce4565b6107e5565b604051610158919061101c565b60405180910390f35b61017b60048036038101906101769190610ce4565b61083b565b604051610188919061101c565b60405180910390f35b6101ab60048036038101906101a69190610d61565b61085b565b005b600260205280600052604060002060009150905080546101cc90611232565b80601f01602080910402602001604051908101604052809291908181526020018280546101f890611232565b80156102455780601f1061021a57610100808354040283529160200191610245565b820191906000526020600020905b81548152906001019060200180831161022857829003601f168201915b505050505081565b600360009054906101000a900473ffffffffffffffffffffffffffffffffffffffff1673ffffffffffffffffffffffffffffffffffffffff163373ffffffffffffffffffffffffffffffffffffffff16146102dd576040517f08c379a00000000000000000000000000000000000000000000000000000000081526004016102d4906110cc565b60405180910390fd5b80600260008473ffffffffffffffffffffffffffffffffffffffff1673ffffffffffffffffffffffffffffffffffffffff1681526020019081526020016000209080519060200190610330929190610baf565b5060018060008473ffffffffffffffffffffffffffffffffffffffff1673ffffffffffffffffffffffffffffffffffffffff16815260200190815260200160002060006101000a81548160ff0219169083151502179055505050565b600060205281600052604060002081815481106103a857600080fd5b9060005260206000209060040201600091509150508060000180546103cc90611232565b80601f01602080910402602001604051908101604052809291908181526020018280546103f890611232565b80156104455780601f1061041a57610100808354040283529160200191610445565b820191906000526020600020905b81548152906001019060200180831161042857829003601f168201915b5050505050908060010154908060020160009054906101000a900473ffffffffffffffffffffffffffffffffffffffff169080600301805461048690611232565b80601f01602080910402602001604051908101604052809291908181526020018280546104b290611232565b80156104ff5780601f106104d4576101008083540402835291602001916104ff565b820191906000526020600020905b8154815290600101906020018083116104e257829003601f168201915b5050505050905084565b606060008060008473ffffffffffffffffffffffffffffffffffffffff1673ffffffffffffffffffffffffffffffffffffffff168152602001908152602001600020805480602002602001604051908101604052809291908181526020016000905b82821015610721578382906000526020600020906004020160405180608001604052908160008201805461059e90611232565b80601f01602080910402602001604051908101604052809291908181526020018280546105ca90611232565b80156106175780601f106105ec57610100808354040283529160200191610617565b820191906000526020600020905b8154815290600101906020018083116105fa57829003601f168201915b50505050508152602001600182015481526020016002820160009054906101000a900473ffffffffffffffffffffffffffffffffffffffff1673ffffffffffffffffffffffffffffffffffffffff1673ffffffffffffffffffffffffffffffffffffffff16815260200160038201805461069090611232565b80601f01602080910402602001604051908101604052809291908181526020018280546106bc90611232565b80156107095780601f106106de57610100808354040283529160200191610709565b820191906000526020600020905b8154815290600101906020018083116106ec57829003601f168201915b5050505050815250508152602001906001019061056b565b50505050905060005b81518110156107db5761078082828151811061076f577f4e487b7100000000000000000000000000000000000000000000000000000000600052603260045260246000fd5b602002602001015160400151610ade565b8282815181106107b9577f4e487b7100000000000000000000000000000000000000000000000000000000600052603260045260246000fd5b60200260200101516060018190525080806107d390611295565b91505061072a565b5080915050919050565b6000600160008373ffffffffffffffffffffffffffffffffffffffff1673ffffffffffffffffffffffffffffffffffffffff16815260200190815260200160002060009054906101000a900460ff169050919050565b60016020528060005260406000206000915054906101000a900460ff1681565b600160003373ffffffffffffffffffffffffffffffffffffffff1673ffffffffffffffffffffffffffffffffffffffff16815260200190815260200160002060009054906101000a900460ff166108e7576040517f08c379a00000000000000000000000000000000000000000000000000000000081526004016108de906110ac565b60405180910390fd5b6000808473ffffffffffffffffffffffffffffffffffffffff1673ffffffffffffffffffffffffffffffffffffffff16815260200190815260200160002060405180608001604052808481526020018381526020013373ffffffffffffffffffffffffffffffffffffffff168152602001600260003373ffffffffffffffffffffffffffffffffffffffff1673ffffffffffffffffffffffffffffffffffffffff16815260200190815260200160002080546109a290611232565b80601f01602080910402602001604051908101604052809291908181526020018280546109ce90611232565b8015610a1b5780601f106109f057610100808354040283529160200191610a1b565b820191906000526020600020905b8154815290600101906020018083116109fe57829003601f168201915b505050505081525090806001815401808255809150506001900390600052602060002090600402016000909190919091506000820151816000019080519060200190610a68929190610baf565b506020820151816001015560408201518160020160006101000a81548173ffffffffffffffffffffffffffffffffffffffff021916908373ffffffffffffffffffffffffffffffffffffffff1602179055506060820151816003019080519060200190610ad6929190610baf565b505050505050565b6060600260008373ffffffffffffffffffffffffffffffffffffffff1673ffffffffffffffffffffffffffffffffffffffff1681526020019081526020016000208054610b2a90611232565b80601f0160208091040260200160405190810160405280929190818152602001828054610b5690611232565b8015610ba35780601f10610b7857610100808354040283529160200191610ba3565b820191906000526020600020905b815481529060010190602001808311610b8657829003601f168201915b50505050509050919050565b828054610bbb90611232565b90600052602060002090601f016020900481019282610bdd5760008555610c24565b82601f10610bf657805160ff1916838001178555610c24565b82800160010185558215610c24579182015b82811115610c23578251825591602001919060010190610c08565b5b509050610c319190610c35565b5090565b5b80821115610c4e576000816000905550600101610c36565b5090565b6000610c65610c6084611111565b6110ec565b905082815260208101848484011115610c7d57600080fd5b610c888482856111f0565b509392505050565b600081359050610c9f8161141a565b92915050565b600082601f830112610cb657600080fd5b8135610cc6848260208601610c52565b91505092915050565b600081359050610cde81611431565b92915050565b600060208284031215610cf657600080fd5b6000610d0484828501610c90565b91505092915050565b60008060408385031215610d2057600080fd5b6000610d2e85828601610c90565b925050602083013567ffffffffffffffff811115610d4b57600080fd5b610d5785828601610ca5565b9150509250929050565b600080600060608486031215610d7657600080fd5b6000610d8486828701610c90565b935050602084013567ffffffffffffffff811115610da157600080fd5b610dad86828701610ca5565b9250506040610dbe86828701610ccf565b9150509250925092565b60008060408385031215610ddb57600080fd5b6000610de985828601610c90565b9250506020610dfa85828601610ccf565b9150509250929050565b6000610e108383610f72565b905092915050565b610e21816111a8565b82525050565b610e30816111a8565b82525050565b6000610e4182611152565b610e4b8185611175565b935083602082028501610e5d85611142565b8060005b85811015610e995784840389528151610e7a8582610e04565b9450610e8583611168565b925060208a01995050600181019050610e61565b50829750879550505050505092915050565b610eb4816111ba565b82525050565b6000610ec58261115d565b610ecf8185611186565b9350610edf8185602086016111ff565b610ee88161136b565b840191505092915050565b6000610efe8261115d565b610f088185611197565b9350610f188185602086016111ff565b610f218161136b565b840191505092915050565b6000610f39602783611197565b9150610f448261137c565b604082019050919050565b6000610f5c602183611197565b9150610f67826113cb565b604082019050919050565b60006080830160008301518482036000860152610f8f8282610eba565b9150506020830151610fa46020860182610fdc565b506040830151610fb76040860182610e18565b5060608301518482036060860152610fcf8282610eba565b9150508091505092915050565b610fe5816111e6565b82525050565b610ff4816111e6565b82525050565b600060208201905081810360008301526110148184610e36565b905092915050565b60006020820190506110316000830184610eab565b92915050565b600060208201905081810360008301526110518184610ef3565b905092915050565b600060808201905081810360008301526110738187610ef3565b90506110826020830186610feb565b61108f6040830185610e27565b81810360608301526110a18184610ef3565b905095945050505050565b600060208201905081810360008301526110c581610f2c565b9050919050565b600060208201905081810360008301526110e581610f4f565b9050919050565b60006110f6611107565b90506111028282611264565b919050565b6000604051905090565b600067ffffffffffffffff82111561112c5761112b61133c565b5b6111358261136b565b9050602081019050919050565b6000819050602082019050919050565b600081519050919050565b600081519050919050565b6000602082019050919050565b600082825260208201905092915050565b600082825260208201905092915050565b600082825260208201905092915050565b60006111b3826111c6565b9050919050565b60008115159050919050565b600073ffffffffffffffffffffffffffffffffffffffff82169050919050565b6000819050919050565b82818337600083830152505050565b60005b8381101561121d578082015181840152602081019050611202565b8381111561122c576000848401525b50505050565b6000600282049050600182168061124a57607f821691505b6020821081141561125e5761125d61130d565b5b50919050565b61126d8261136b565b810181811067ffffffffffffffff8211171561128c5761128b61133c565b5b80604052505050565b60006112a0826111e6565b91507fffffffffffffffffffffffffffffffffffffffffffffffffffffffffffffffff8214156112d3576112d26112de565b5b600182019050919050565b7f4e487b7100000000000000000000000000000000000000000000000000000000600052601160045260246000fd5b7f4e487b7100000000000000000000000000000000000000000000000000000000600052602260045260246000fd5b7f4e487b7100000000000000000000000000000000000000000000000000000000600052604160045260246000fd5b6000601f19601f8301169050919050565b7f446f63746f72206d75737420626520766572696669656420746f20616464207660008201527f616363696e657300000000000000000000000000000000000000000000000000602082015250565b7f4f6e6c792061646d696e2063616e2063616c6c20746869732066756e6374696f60008201527f6e00000000000000000000000000000000000000000000000000000000000000602082015250565b611423816111a8565b811461142e57600080fd5b50565b61143a816111e6565b811461144557600080fd5b5056fea2646970667358221220d524bd26965061d04a0513eabb3a483bf582c3520bd23517960d9f85b7c3c81464736f6c63430008010033",
  "linkReferences": {},
  "deployedLinkReferences": {}
}