{
  "_format": "hh-sol-artifact-1",
  "contractName": "ProfilePictureNFT",
  "sourceName": "contracts/NFTS.sol",
  "abi": [
    {
      "inputs": [],
      "stateMutability": "nonpayable",
      "type": "constructor"
    },
    {
      "anonymous": false,
      "inputs": [
        {
          "indexed": true,
          "internalType": "address",
          "name": "owner",
          "type": "address"
        },
        {
          "indexed": true,
          "internalType": "address",
          "name": "approved",
          "type": "address"
        },
        {
          "indexed": true,
          "internalType": "uint256",
          "name": "tokenId",
          "type": "uint256"
        }
      ],
      "name": "Approval",
      "type": "event"
    },
    {
      "anonymous": false,
      "inputs": [
        {
          "indexed": true,
          "internalType": "address",
          "name": "owner",
          "type": "address"
        },
        {
          "indexed": true,
          "internalType": "address",
          "name": "operator",
          "type": "address"
        },
        {
          "indexed": false,
          "internalType": "bool",
          "name": "approved",
          "type": "bool"
        }
      ],
      "name": "ApprovalForAll",
      "type": "event"
    },
    {
      "anonymous": false,
      "inputs": [
        {
          "indexed": true,
          "internalType": "address",
          "name": "from",
          "type": "address"
        },
        {
          "indexed": true,
          "internalType": "address",
          "name": "to",
          "type": "address"
        },
        {
          "indexed": true,
          "internalType": "uint256",
          "name": "tokenId",
          "type": "uint256"
        }
      ],
      "name": "Transfer",
      "type": "event"
    },
    {
      "inputs": [
        {
          "internalType": "address",
          "name": "to",
          "type": "address"
        },
        {
          "internalType": "uint256",
          "name": "tokenId",
          "type": "uint256"
        }
      ],
      "name": "approve",
      "outputs": [],
      "stateMutability": "nonpayable",
      "type": "function"
    },
    {
      "inputs": [
        {
          "internalType": "address",
          "name": "owner",
          "type": "address"
        }
      ],
      "name": "balanceOf",
      "outputs": [
        {
          "internalType": "uint256",
          "name": "",
          "type": "uint256"
        }
      ],
      "stateMutability": "view",
      "type": "function"
    },
    {
      "inputs": [
        {
          "internalType": "uint256",
          "name": "tokenId",
          "type": "uint256"
        }
      ],
      "name": "burnNFT",
      "outputs": [],
      "stateMutability": "nonpayable",
      "type": "function"
    },
    {
      "inputs": [
        {
          "internalType": "uint256",
          "name": "tokenId",
          "type": "uint256"
        }
      ],
      "name": "getApproved",
      "outputs": [
        {
          "internalType": "address",
          "name": "",
          "type": "address"
        }
      ],
      "stateMutability": "view",
      "type": "function"
    },
    {
      "inputs": [
        {
          "internalType": "address",
          "name": "owner",
          "type": "address"
        },
        {
          "internalType": "address",
          "name": "operator",
          "type": "address"
        }
      ],
      "name": "isApprovedForAll",
      "outputs": [
        {
          "internalType": "bool",
          "name": "",
          "type": "bool"
        }
      ],
      "stateMutability": "view",
      "type": "function"
    },
    {
      "inputs": [
        {
          "internalType": "address",
          "name": "recipient",
          "type": "address"
        },
        {
          "internalType": "string",
          "name": "tokenURI",
          "type": "string"
        }
      ],
      "name": "mintNFT",
      "outputs": [
        {
          "internalType": "uint256",
          "name": "",
          "type": "uint256"
        }
      ],
      "stateMutability": "nonpayable",
      "type": "function"
    },
    {
      "inputs": [],
      "name": "name",
      "outputs": [
        {
          "internalType": "string",
          "name": "",
          "type": "string"
        }
      ],
      "stateMutability": "view",
      "type": "function"
    },
    {
      "inputs": [
        {
          "internalType": "uint256",
          "name": "tokenId",
          "type": "uint256"
        }
      ],
      "name": "ownerOf",
      "outputs": [
        {
          "internalType": "address",
          "name": "",
          "type": "address"
        }
      ],
      "stateMutability": "view",
      "type": "function"
    },
    {
      "inputs": [
        {
          "internalType": "address",
          "name": "from",
          "type": "address"
        },
        {
          "internalType": "address",
          "name": "to",
          "type": "address"
        },
        {
          "internalType": "uint256",
          "name": "tokenId",
          "type": "uint256"
        }
      ],
      "name": "safeTransferFrom",
      "outputs": [],
      "stateMutability": "nonpayable",
      "type": "function"
    },
    {
      "inputs": [
        {
          "internalType": "address",
          "name": "from",
          "type": "address"
        },
        {
          "internalType": "address",
          "name": "to",
          "type": "address"
        },
        {
          "internalType": "uint256",
          "name": "tokenId",
          "type": "uint256"
        },
        {
          "internalType": "bytes",
          "name": "data",
          "type": "bytes"
        }
      ],
      "name": "safeTransferFrom",
      "outputs": [],
      "stateMutability": "nonpayable",
      "type": "function"
    },
    {
      "inputs": [
        {
          "internalType": "address",
          "name": "operator",
          "type": "address"
        },
        {
          "internalType": "bool",
          "name": "approved",
          "type": "bool"
        }
      ],
      "name": "setApprovalForAll",
      "outputs": [],
      "stateMutability": "nonpayable",
      "type": "function"
    },
    {
      "inputs": [
        {
          "internalType": "bytes4",
          "name": "interfaceId",
          "type": "bytes4"
        }
      ],
      "name": "supportsInterface",
      "outputs": [
        {
          "internalType": "bool",
          "name": "",
          "type": "bool"
        }
      ],
      "stateMutability": "view",
      "type": "function"
    },
    {
      "inputs": [],
      "name": "symbol",
      "outputs": [
        {
          "internalType": "string",
          "name": "",
          "type": "string"
        }
      ],
      "stateMutability": "view",
      "type": "function"
    },
    {
      "inputs": [
        {
          "internalType": "uint256",
          "name": "tokenId",
          "type": "uint256"
        }
      ],
      "name": "tokenURI",
      "outputs": [
        {
          "internalType": "string",
          "name": "",
          "type": "string"
        }
      ],
      "stateMutability": "view",
      "type": "function"
    },
    {
      "inputs": [
        {
          "internalType": "address",
          "name": "owner",
          "type": "address"
        }
      ],
      "name": "tokensOfOwner",
      "outputs": [
        {
          "internalType": "uint256[]",
          "name": "",
          "type": "uint256[]"
        }
      ],
      "stateMutability": "view",
      "type": "function"
    },
    {
      "inputs": [
        {
          "internalType": "address",
          "name": "from",
          "type": "address"
        },
        {
          "internalType": "address",
          "name": "to",
          "type": "address"
        },
        {
          "internalType": "uint256",
          "name": "tokenId",
          "type": "uint256"
        }
      ],
      "name": "transferFrom",
      "outputs": [],
      "stateMutability": "nonpayable",
      "type": "function"
    }
  ],
  "bytecode": "0x60806040523480156200001157600080fd5b506040518060400160405280601181526020017f50726f66696c65506963747572654e46540000000000000000000000000000008152506040518060400160405280600581526020017f50504e4654000000000000000000000000000000000000000000000000000000815250816000908051906020019062000096929190620000b8565b508060019080519060200190620000af929190620000b8565b505050620001cd565b828054620000c69062000168565b90600052602060002090601f016020900481019282620000ea576000855562000136565b82601f106200010557805160ff191683800117855562000136565b8280016001018555821562000136579182015b828111156200013557825182559160200191906001019062000118565b5b50905062000145919062000149565b5090565b5b80821115620001645760008160009055506001016200014a565b5090565b600060028204905060018216806200018157607f821691505b602082108114156200019857620001976200019e565b5b50919050565b7f4e487b7100000000000000000000000000000000000000000000000000000000600052602260045260246000fd5b612ed380620001dd6000396000f3fe608060405234801561001057600080fd5b50600436106101005760003560e01c806370a0823111610097578063b88d4fde11610066578063b88d4fde146102bd578063c87b56dd146102d9578063e985e9c514610309578063eacabe141461033957610100565b806370a08231146102235780638462151c1461025357806395d89b4114610283578063a22cb465146102a157610100565b806323b872dd116100d357806323b872dd1461019f5780632890e0d7146101bb57806342842e0e146101d75780636352211e146101f357610100565b806301ffc9a71461010557806306fdde0314610135578063081812fc14610153578063095ea7b314610183575b600080fd5b61011f600480360381019061011a919061220f565b610369565b60405161012c9190612653565b60405180910390f35b61013d61044b565b60405161014a919061266e565b60405180910390f35b61016d60048036038101906101689190612261565b6104dd565b60405161017a91906125ca565b60405180910390f35b61019d600480360381019061019891906121d3565b610523565b005b6101b960048036038101906101b49190612079565b61063b565b005b6101d560048036038101906101d09190612261565b61069b565b005b6101f160048036038101906101ec9190612079565b6106f7565b005b61020d60048036038101906102089190612261565b610717565b60405161021a91906125ca565b60405180910390f35b61023d60048036038101906102389190612014565b61079e565b60405161024a9190612830565b60405180910390f35b61026d60048036038101906102689190612014565b610856565b60405161027a9190612631565b60405180910390f35b61028b6108ed565b604051610298919061266e565b60405180910390f35b6102bb60048036038101906102b69190612143565b61097f565b005b6102d760048036038101906102d291906120c8565b610995565b005b6102f360048036038101906102ee9190612261565b6109f7565b604051610300919061266e565b60405180910390f35b610323600480360381019061031e919061203d565b610b0a565b6040516103309190612653565b60405180910390f35b610353600480360381019061034e919061217f565b610b9e565b6040516103609190612830565b60405180910390f35b60007f80ac58cd000000000000000000000000000000000000000000000000000000007bffffffffffffffffffffffffffffffffffffffffffffffffffffffff1916827bffffffffffffffffffffffffffffffffffffffffffffffffffffffff1916148061043457507f5b5e139f000000000000000000000000000000000000000000000000000000007bffffffffffffffffffffffffffffffffffffffffffffffffffffffff1916827bffffffffffffffffffffffffffffffffffffffffffffffffffffffff1916145b80610444575061044382610c3c565b5b9050919050565b60606000805461045a90612a04565b80601f016020809104026020016040519081016040528092919081815260200182805461048690612a04565b80156104d35780601f106104a8576101008083540402835291602001916104d3565b820191906000526020600020905b8154815290600101906020018083116104b657829003601f168201915b5050505050905090565b60006104e882610ca6565b6004600083815260200190815260200160002060009054906101000a900473ffffffffffffffffffffffffffffffffffffffff169050919050565b600061052e82610717565b90508073ffffffffffffffffffffffffffffffffffffffff168373ffffffffffffffffffffffffffffffffffffffff16141561059f576040517f08c379a0000000000000000000000000000000000000000000000000000000008152600401610596906127d0565b60405180910390fd5b8073ffffffffffffffffffffffffffffffffffffffff166105be610cf1565b73ffffffffffffffffffffffffffffffffffffffff1614806105ed57506105ec816105e7610cf1565b610b0a565b5b61062c576040517f08c379a000000000000000000000000000000000000000000000000000000000815260040161062390612810565b60405180910390fd5b6106368383610cf9565b505050565b61064c610646610cf1565b82610db2565b61068b576040517f08c379a000000000000000000000000000000000000000000000000000000000815260040161068290612690565b60405180910390fd5b610696838383610e47565b505050565b6106ac6106a6610cf1565b82610db2565b6106eb576040517f08c379a00000000000000000000000000000000000000000000000000000000081526004016106e2906127f0565b60405180910390fd5b6106f481611141565b50565b61071283838360405180602001604052806000815250610995565b505050565b60008061072383611194565b9050600073ffffffffffffffffffffffffffffffffffffffff168173ffffffffffffffffffffffffffffffffffffffff161415610795576040517f08c379a000000000000000000000000000000000000000000000000000000000815260040161078c906127b0565b60405180910390fd5b80915050919050565b60008073ffffffffffffffffffffffffffffffffffffffff168273ffffffffffffffffffffffffffffffffffffffff16141561080f576040517f08c379a000000000000000000000000000000000000000000000000000000000815260040161080690612750565b60405180910390fd5b600360008373ffffffffffffffffffffffffffffffffffffffff1673ffffffffffffffffffffffffffffffffffffffff168152602001908152602001600020549050919050565b6060600860008373ffffffffffffffffffffffffffffffffffffffff1673ffffffffffffffffffffffffffffffffffffffff1681526020019081526020016000208054806020026020016040519081016040528092919081815260200182805480156108e157602002820191906000526020600020905b8154815260200190600101908083116108cd575b50505050509050919050565b6060600180546108fc90612a04565b80601f016020809104026020016040519081016040528092919081815260200182805461092890612a04565b80156109755780601f1061094a57610100808354040283529160200191610975565b820191906000526020600020905b81548152906001019060200180831161095857829003601f168201915b5050505050905090565b61099161098a610cf1565b83836111d1565b5050565b6109a66109a0610cf1565b83610db2565b6109e5576040517f08c379a00000000000000000000000000000000000000000000000000000000081526004016109dc90612690565b60405180910390fd5b6109f18484848461133e565b50505050565b6060610a0282610ca6565b6000600660008481526020019081526020016000208054610a2290612a04565b80601f0160208091040260200160405190810160405280929190818152602001828054610a4e90612a04565b8015610a9b5780601f10610a7057610100808354040283529160200191610a9b565b820191906000526020600020905b815481529060010190602001808311610a7e57829003601f168201915b505050505090506000610aac61139a565b9050600081511415610ac2578192505050610b05565b600082511115610af7578082604051602001610adf9291906125a6565b60405160208183030381529060405292505050610b05565b610b00846113b1565b925050505b919050565b6000600560008473ffffffffffffffffffffffffffffffffffffffff1673ffffffffffffffffffffffffffffffffffffffff16815260200190815260200160002060008373ffffffffffffffffffffffffffffffffffffffff1673ffffffffffffffffffffffffffffffffffffffff16815260200190815260200160002060009054906101000a900460ff16905092915050565b6000610baa6007611419565b6000610bb6600761142f565b9050610bc2848261143d565b610bcc818461145b565b600860008573ffffffffffffffffffffffffffffffffffffffff1673ffffffffffffffffffffffffffffffffffffffff1681526020019081526020016000208190806001815401808255809150506001900390600052602060002001600090919091909150558091505092915050565b60007f01ffc9a7000000000000000000000000000000000000000000000000000000007bffffffffffffffffffffffffffffffffffffffffffffffffffffffff1916827bffffffffffffffffffffffffffffffffffffffffffffffffffffffff1916149050919050565b610caf816114cf565b610cee576040517f08c379a0000000000000000000000000000000000000000000000000000000008152600401610ce5906127b0565b60405180910390fd5b50565b600033905090565b816004600083815260200190815260200160002060006101000a81548173ffffffffffffffffffffffffffffffffffffffff021916908373ffffffffffffffffffffffffffffffffffffffff160217905550808273ffffffffffffffffffffffffffffffffffffffff16610d6c83610717565b73ffffffffffffffffffffffffffffffffffffffff167f8c5be1e5ebec7d5bd14f71427d1e84f3dd0314c0f7b2291e5b200ac8c7c3b92560405160405180910390a45050565b600080610dbe83610717565b90508073ffffffffffffffffffffffffffffffffffffffff168473ffffffffffffffffffffffffffffffffffffffff161480610e005750610dff8185610b0a565b5b80610e3e57508373ffffffffffffffffffffffffffffffffffffffff16610e26846104dd565b73ffffffffffffffffffffffffffffffffffffffff16145b91505092915050565b8273ffffffffffffffffffffffffffffffffffffffff16610e6782610717565b73ffffffffffffffffffffffffffffffffffffffff1614610ebd576040517f08c379a0000000000000000000000000000000000000000000000000000000008152600401610eb4906126d0565b60405180910390fd5b600073ffffffffffffffffffffffffffffffffffffffff168273ffffffffffffffffffffffffffffffffffffffff161415610f2d576040517f08c379a0000000000000000000000000000000000000000000000000000000008152600401610f2490612710565b60405180910390fd5b610f3a8383836001611510565b8273ffffffffffffffffffffffffffffffffffffffff16610f5a82610717565b73ffffffffffffffffffffffffffffffffffffffff1614610fb0576040517f08c379a0000000000000000000000000000000000000000000000000000000008152600401610fa7906126d0565b60405180910390fd5b6004600082815260200190815260200160002060006101000a81549073ffffffffffffffffffffffffffffffffffffffff02191690556001600360008573ffffffffffffffffffffffffffffffffffffffff1673ffffffffffffffffffffffffffffffffffffffff168152602001908152602001600020600082825403925050819055506001600360008473ffffffffffffffffffffffffffffffffffffffff1673ffffffffffffffffffffffffffffffffffffffff16815260200190815260200160002060008282540192505081905550816002600083815260200190815260200160002060006101000a81548173ffffffffffffffffffffffffffffffffffffffff021916908373ffffffffffffffffffffffffffffffffffffffff160217905550808273ffffffffffffffffffffffffffffffffffffffff168473ffffffffffffffffffffffffffffffffffffffff167fddf252ad1be2c89b69c2b068fc378daa952ba7f163c4a11628f55a4df523b3ef60405160405180910390a461113c8383836001611516565b505050565b61114a8161151c565b600060066000838152602001908152602001600020805461116a90612a04565b905014611191576006600082815260200190815260200160002060006111909190611df8565b5b50565b60006002600083815260200190815260200160002060009054906101000a900473ffffffffffffffffffffffffffffffffffffffff169050919050565b8173ffffffffffffffffffffffffffffffffffffffff168373ffffffffffffffffffffffffffffffffffffffff161415611240576040517f08c379a000000000000000000000000000000000000000000000000000000000815260040161123790612730565b60405180910390fd5b80600560008573ffffffffffffffffffffffffffffffffffffffff1673ffffffffffffffffffffffffffffffffffffffff16815260200190815260200160002060008473ffffffffffffffffffffffffffffffffffffffff1673ffffffffffffffffffffffffffffffffffffffff16815260200190815260200160002060006101000a81548160ff0219169083151502179055508173ffffffffffffffffffffffffffffffffffffffff168373ffffffffffffffffffffffffffffffffffffffff167f17307eab39ab6107e8899845ad3d59bd9653f200f220920489ca2b5937696c31836040516113319190612653565b60405180910390a3505050565b611349848484610e47565b6113558484848461166a565b611394576040517f08c379a000000000000000000000000000000000000000000000000000000000815260040161138b906126b0565b60405180910390fd5b50505050565b606060405180602001604052806000815250905090565b60606113bc82610ca6565b60006113c661139a565b905060008151116113e65760405180602001604052806000815250611411565b806113f084611801565b6040516020016114019291906125a6565b6040516020818303038152906040525b915050919050565b6001816000016000828254019250508190555050565b600081600001549050919050565b611457828260405180602001604052806000815250611925565b5050565b611464826114cf565b6114a3576040517f08c379a000000000000000000000000000000000000000000000000000000000815260040161149a90612770565b60405180910390fd5b806006600084815260200190815260200160002090805190602001906114ca929190611e38565b505050565b60008073ffffffffffffffffffffffffffffffffffffffff166114f183611194565b73ffffffffffffffffffffffffffffffffffffffff1614159050919050565b50505050565b50505050565b600061152782610717565b9050611537816000846001611510565b61154082610717565b90506004600083815260200190815260200160002060006101000a81549073ffffffffffffffffffffffffffffffffffffffff02191690556001600360008373ffffffffffffffffffffffffffffffffffffffff1673ffffffffffffffffffffffffffffffffffffffff168152602001908152602001600020600082825403925050819055506002600083815260200190815260200160002060006101000a81549073ffffffffffffffffffffffffffffffffffffffff021916905581600073ffffffffffffffffffffffffffffffffffffffff168273ffffffffffffffffffffffffffffffffffffffff167fddf252ad1be2c89b69c2b068fc378daa952ba7f163c4a11628f55a4df523b3ef60405160405180910390a4611666816000846001611516565b5050565b600061168b8473ffffffffffffffffffffffffffffffffffffffff16611980565b156117f4578373ffffffffffffffffffffffffffffffffffffffff1663150b7a026116b4610cf1565b8786866040518563ffffffff1660e01b81526004016116d694939291906125e5565b602060405180830381600087803b1580156116f057600080fd5b505af192505050801561172157506040513d601f19601f8201168201806040525081019061171e9190612238565b60015b6117a4573d8060008114611751576040519150601f19603f3d011682016040523d82523d6000602084013e611756565b606091505b5060008151141561179c576040517f08c379a0000000000000000000000000000000000000000000000000000000008152600401611793906126b0565b60405180910390fd5b805181602001fd5b63150b7a0260e01b7bffffffffffffffffffffffffffffffffffffffffffffffffffffffff1916817bffffffffffffffffffffffffffffffffffffffffffffffffffffffff1916149150506117f9565b600190505b949350505050565b606060006001611810846119a3565b01905060008167ffffffffffffffff811115611855577f4e487b7100000000000000000000000000000000000000000000000000000000600052604160045260246000fd5b6040519080825280601f01601f1916602001820160405280156118875781602001600182028036833780820191505090505b509050600082602001820190505b60011561191a578080600190039150507f3031323334353637383961626364656600000000000000000000000000000000600a86061a8153600a8581611904577f4e487b7100000000000000000000000000000000000000000000000000000000600052601260045260246000fd5b04945060008514156119155761191a565b611895565b819350505050919050565b61192f8383611bda565b61193c600084848461166a565b61197b576040517f08c379a0000000000000000000000000000000000000000000000000000000008152600401611972906126b0565b60405180910390fd5b505050565b6000808273ffffffffffffffffffffffffffffffffffffffff163b119050919050565b600080600090507a184f03e93ff9f4daa797ed6e38ed64bf6a1f0100000000000000008310611a27577a184f03e93ff9f4daa797ed6e38ed64bf6a1f0100000000000000008381611a1d577f4e487b7100000000000000000000000000000000000000000000000000000000600052601260045260246000fd5b0492506040810190505b6d04ee2d6d415b85acef81000000008310611a8a576d04ee2d6d415b85acef81000000008381611a80577f4e487b7100000000000000000000000000000000000000000000000000000000600052601260045260246000fd5b0492506020810190505b662386f26fc100008310611adf57662386f26fc100008381611ad5577f4e487b7100000000000000000000000000000000000000000000000000000000600052601260045260246000fd5b0492506010810190505b6305f5e1008310611b2e576305f5e1008381611b24577f4e487b7100000000000000000000000000000000000000000000000000000000600052601260045260246000fd5b0492506008810190505b6127108310611b79576127108381611b6f577f4e487b7100000000000000000000000000000000000000000000000000000000600052601260045260246000fd5b0492506004810190505b60648310611bc25760648381611bb8577f4e487b7100000000000000000000000000000000000000000000000000000000600052601260045260246000fd5b0492506002810190505b600a8310611bd1576001810190505b80915050919050565b600073ffffffffffffffffffffffffffffffffffffffff168273ffffffffffffffffffffffffffffffffffffffff161415611c4a576040517f08c379a0000000000000000000000000000000000000000000000000000000008152600401611c4190612790565b60405180910390fd5b611c53816114cf565b15611c93576040517f08c379a0000000000000000000000000000000000000000000000000000000008152600401611c8a906126f0565b60405180910390fd5b611ca1600083836001611510565b611caa816114cf565b15611cea576040517f08c379a0000000000000000000000000000000000000000000000000000000008152600401611ce1906126f0565b60405180910390fd5b6001600360008473ffffffffffffffffffffffffffffffffffffffff1673ffffffffffffffffffffffffffffffffffffffff16815260200190815260200160002060008282540192505081905550816002600083815260200190815260200160002060006101000a81548173ffffffffffffffffffffffffffffffffffffffff021916908373ffffffffffffffffffffffffffffffffffffffff160217905550808273ffffffffffffffffffffffffffffffffffffffff16600073ffffffffffffffffffffffffffffffffffffffff167fddf252ad1be2c89b69c2b068fc378daa952ba7f163c4a11628f55a4df523b3ef60405160405180910390a4611df4600083836001611516565b5050565b508054611e0490612a04565b6000825580601f10611e165750611e35565b601f016020900490600052602060002090810190611e349190611ebe565b5b50565b828054611e4490612a04565b90600052602060002090601f016020900481019282611e665760008555611ead565b82601f10611e7f57805160ff1916838001178555611ead565b82800160010185558215611ead579182015b82811115611eac578251825591602001919060010190611e91565b5b509050611eba9190611ebe565b5090565b5b80821115611ed7576000816000905550600101611ebf565b5090565b6000611eee611ee984612870565b61284b565b905082815260208101848484011115611f0657600080fd5b611f118482856129c2565b509392505050565b6000611f2c611f27846128a1565b61284b565b905082815260208101848484011115611f4457600080fd5b611f4f8482856129c2565b509392505050565b600081359050611f6681612e41565b92915050565b600081359050611f7b81612e58565b92915050565b600081359050611f9081612e6f565b92915050565b600081519050611fa581612e6f565b92915050565b600082601f830112611fbc57600080fd5b8135611fcc848260208601611edb565b91505092915050565b600082601f830112611fe657600080fd5b8135611ff6848260208601611f19565b91505092915050565b60008135905061200e81612e86565b92915050565b60006020828403121561202657600080fd5b600061203484828501611f57565b91505092915050565b6000806040838503121561205057600080fd5b600061205e85828601611f57565b925050602061206f85828601611f57565b9150509250929050565b60008060006060848603121561208e57600080fd5b600061209c86828701611f57565b93505060206120ad86828701611f57565b92505060406120be86828701611fff565b9150509250925092565b600080600080608085870312156120de57600080fd5b60006120ec87828801611f57565b94505060206120fd87828801611f57565b935050604061210e87828801611fff565b925050606085013567ffffffffffffffff81111561212b57600080fd5b61213787828801611fab565b91505092959194509250565b6000806040838503121561215657600080fd5b600061216485828601611f57565b925050602061217585828601611f6c565b9150509250929050565b6000806040838503121561219257600080fd5b60006121a085828601611f57565b925050602083013567ffffffffffffffff8111156121bd57600080fd5b6121c985828601611fd5565b9150509250929050565b600080604083850312156121e657600080fd5b60006121f485828601611f57565b925050602061220585828601611fff565b9150509250929050565b60006020828403121561222157600080fd5b600061222f84828501611f81565b91505092915050565b60006020828403121561224a57600080fd5b600061225884828501611f96565b91505092915050565b60006020828403121561227357600080fd5b600061228184828501611fff565b91505092915050565b60006122968383612588565b60208301905092915050565b6122ab8161294e565b82525050565b60006122bc826128e2565b6122c68185612910565b93506122d1836128d2565b8060005b838110156123025781516122e9888261228a565b97506122f483612903565b9250506001810190506122d5565b5085935050505092915050565b61231881612960565b82525050565b6000612329826128ed565b6123338185612921565b93506123438185602086016129d1565b61234c81612ac5565b840191505092915050565b6000612362826128f8565b61236c8185612932565b935061237c8185602086016129d1565b61238581612ac5565b840191505092915050565b600061239b826128f8565b6123a58185612943565b93506123b58185602086016129d1565b80840191505092915050565b60006123ce602d83612932565b91506123d982612ad6565b604082019050919050565b60006123f1603283612932565b91506123fc82612b25565b604082019050919050565b6000612414602583612932565b915061241f82612b74565b604082019050919050565b6000612437601c83612932565b915061244282612bc3565b602082019050919050565b600061245a602483612932565b915061246582612bec565b604082019050919050565b600061247d601983612932565b915061248882612c3b565b602082019050919050565b60006124a0602983612932565b91506124ab82612c64565b604082019050919050565b60006124c3602e83612932565b91506124ce82612cb3565b604082019050919050565b60006124e6602083612932565b91506124f182612d02565b602082019050919050565b6000612509601883612932565b915061251482612d2b565b602082019050919050565b600061252c602183612932565b915061253782612d54565b604082019050919050565b600061254f602283612932565b915061255a82612da3565b604082019050919050565b6000612572603d83612932565b915061257d82612df2565b604082019050919050565b612591816129b8565b82525050565b6125a0816129b8565b82525050565b60006125b28285612390565b91506125be8284612390565b91508190509392505050565b60006020820190506125df60008301846122a2565b92915050565b60006080820190506125fa60008301876122a2565b61260760208301866122a2565b6126146040830185612597565b8181036060830152612626818461231e565b905095945050505050565b6000602082019050818103600083015261264b81846122b1565b905092915050565b6000602082019050612668600083018461230f565b92915050565b600060208201905081810360008301526126888184612357565b905092915050565b600060208201905081810360008301526126a9816123c1565b9050919050565b600060208201905081810360008301526126c9816123e4565b9050919050565b600060208201905081810360008301526126e981612407565b9050919050565b600060208201905081810360008301526127098161242a565b9050919050565b600060208201905081810360008301526127298161244d565b9050919050565b6000602082019050818103600083015261274981612470565b9050919050565b6000602082019050818103600083015261276981612493565b9050919050565b60006020820190508181036000830152612789816124b6565b9050919050565b600060208201905081810360008301526127a9816124d9565b9050919050565b600060208201905081810360008301526127c9816124fc565b9050919050565b600060208201905081810360008301526127e98161251f565b9050919050565b6000602082019050818103600083015261280981612542565b9050919050565b6000602082019050818103600083015261282981612565565b9050919050565b60006020820190506128456000830184612597565b92915050565b6000612855612866565b90506128618282612a36565b919050565b6000604051905090565b600067ffffffffffffffff82111561288b5761288a612a96565b5b61289482612ac5565b9050602081019050919050565b600067ffffffffffffffff8211156128bc576128bb612a96565b5b6128c582612ac5565b9050602081019050919050565b6000819050602082019050919050565b600081519050919050565b600081519050919050565b600081519050919050565b6000602082019050919050565b600082825260208201905092915050565b600082825260208201905092915050565b600082825260208201905092915050565b600081905092915050565b600061295982612998565b9050919050565b60008115159050919050565b60007fffffffff0000000000000000000000000000000000000000000000000000000082169050919050565b600073ffffffffffffffffffffffffffffffffffffffff82169050919050565b6000819050919050565b82818337600083830152505050565b60005b838110156129ef5780820151818401526020810190506129d4565b838111156129fe576000848401525b50505050565b60006002820490506001821680612a1c57607f821691505b60208210811415612a3057612a2f612a67565b5b50919050565b612a3f82612ac5565b810181811067ffffffffffffffff82111715612a5e57612a5d612a96565b5b80604052505050565b7f4e487b7100000000000000000000000000000000000000000000000000000000600052602260045260246000fd5b7f4e487b7100000000000000000000000000000000000000000000000000000000600052604160045260246000fd5b6000601f19601f8301169050919050565b7f4552433732313a2063616c6c6572206973206e6f7420746f6b656e206f776e6560008201527f72206f7220617070726f76656400000000000000000000000000000000000000602082015250565b7f4552433732313a207472616e7366657220746f206e6f6e20455243373231526560008201527f63656976657220696d706c656d656e7465720000000000000000000000000000602082015250565b7f4552433732313a207472616e736665722066726f6d20696e636f72726563742060008201527f6f776e6572000000000000000000000000000000000000000000000000000000602082015250565b7f4552433732313a20746f6b656e20616c7265616479206d696e74656400000000600082015250565b7f4552433732313a207472616e7366657220746f20746865207a65726f2061646460008201527f7265737300000000000000000000000000000000000000000000000000000000602082015250565b7f4552433732313a20617070726f766520746f2063616c6c657200000000000000600082015250565b7f4552433732313a2061646472657373207a65726f206973206e6f74206120766160008201527f6c6964206f776e65720000000000000000000000000000000000000000000000602082015250565b7f45524337323155524953746f726167653a2055524920736574206f66206e6f6e60008201527f6578697374656e7420746f6b656e000000000000000000000000000000000000602082015250565b7f4552433732313a206d696e7420746f20746865207a65726f2061646472657373600082015250565b7f4552433732313a20696e76616c696420746f6b656e2049440000000000000000600082015250565b7f4552433732313a20617070726f76616c20746f2063757272656e74206f776e6560008201527f7200000000000000000000000000000000000000000000000000000000000000602082015250565b7f43616c6c6572206973206e6f7420746865206f776e6572206f6620746865204e60008201527f4654000000000000000000000000000000000000000000000000000000000000602082015250565b7f4552433732313a20617070726f76652063616c6c6572206973206e6f7420746f60008201527f6b656e206f776e6572206f7220617070726f76656420666f7220616c6c000000602082015250565b612e4a8161294e565b8114612e5557600080fd5b50565b612e6181612960565b8114612e6c57600080fd5b50565b612e788161296c565b8114612e8357600080fd5b50565b612e8f816129b8565b8114612e9a57600080fd5b5056fea2646970667358221220680a256e97136bd4bb7d1dbdc84eadc0f0fc9e1c46585a8841bca581e9509fdc64736f6c63430008010033",
  "linkReferences": {},
  "deployedLinkReferences": {}
}